{
  "transactions": [
    {
      "hash": "0x81db31a2067d8bb48a9f37f5cc22f7794c4ea2c815d2be539434c8e81826fadd",
      "transactionType": "CALL",
      "contractName": "TetherUSD",
      "contractAddress": "0xEce6af52f8eDF69dd2C216b9C3f184e5b31750e9",
      "function": "approve(address,uint256)",
      "arguments": [
        "0x5bA874E13D2Cf3161F89D1B1d1732D14226dBF16",
        "1000000000000000000000"
      ],
      "transaction": {
        "type": "0x02",
        "from": "0x4281b208a7c38d1fcd58eeef77e3d7c6cb1de9be",
        "to": "0xece6af52f8edf69dd2c216b9c3f184e5b31750e9",
        "gas": "0x108f4",
        "value": "0x0",
        "data": "0x095ea7b30000000000000000000000005ba874e13d2cf3161f89d1b1d1732d14226dbf1600000000000000000000000000000000000000000000003635c9adc5dea00000",
        "nonce": "0x4",
        "accessList": []
      },
      "additionalContracts": [],
      "isFixedGasLimit": false
    },
    {
      "hash": "0x362e7a6df33a215fdbcec3b1ba327e5f3edeb6156c3905a13b60a53bb8207381",
      "transactionType": "CALL",
      "contractName": "USDCoin",
      "contractAddress": "0x63ba29cAF4c40DaDA8a61D10AB5D2728c806b61f",
      "function": "approve(address,uint256)",
      "arguments": [
        "0x5bA874E13D2Cf3161F89D1B1d1732D14226dBF16",
        "1000000000000000000000"
      ],
      "transaction": {
        "type": "0x02",
        "from": "0x4281b208a7c38d1fcd58eeef77e3d7c6cb1de9be",
        "to": "0x63ba29caf4c40dada8a61d10ab5d2728c806b61f",
        "gas": "0x108f4",
        "value": "0x0",
        "data": "0x095ea7b30000000000000000000000005ba874e13d2cf3161f89d1b1d1732d14226dbf1600000000000000000000000000000000000000000000003635c9adc5dea00000",
        "nonce": "0x5",
        "accessList": []
      },
      "additionalContracts": [],
      "isFixedGasLimit": false
    },
    {
      "hash": "0xb3b99c80f5d11b26134a76730f13d46535ffe33ef4888088c5c340a368cb4f7e",
      "transactionType": "CALL",
      "contractName": "TetherUSD",
      "contractAddress": "0xEce6af52f8eDF69dd2C216b9C3f184e5b31750e9",
      "function": "transfer(address,uint256)",
      "arguments": [
        "0x020e22422E7A60035EEB9F12499C1A348FeC0D5B",
        "1000000000000000000000"
      ],
      "transaction": {
        "type": "0x02",
        "from": "0x4281b208a7c38d1fcd58eeef77e3d7c6cb1de9be",
        "to": "0xece6af52f8edf69dd2c216b9c3f184e5b31750e9",
        "gas": "0x1166d",
        "value": "0x0",
        "data": "0xa9059cbb000000000000000000000000020e22422e7a60035eeb9f12499c1a348fec0d5b00000000000000000000000000000000000000000000003635c9adc5dea00000",
        "nonce": "0x6",
        "accessList": []
      },
      "additionalContracts": [],
      "isFixedGasLimit": false
    },
    {
      "hash": "0x40643afddecfb893d681c0119e449c59c93b01890090cfab0dcb350c93ecf7b6",
      "transactionType": "CALL",
      "contractName": "USDCoin",
      "contractAddress": "0x63ba29cAF4c40DaDA8a61D10AB5D2728c806b61f",
      "function": "transfer(address,uint256)",
      "arguments": [
        "0x020e22422E7A60035EEB9F12499C1A348FeC0D5B",
        "1000000000000000000000"
      ],
      "transaction": {
        "type": "0x02",
        "from": "0x4281b208a7c38d1fcd58eeef77e3d7c6cb1de9be",
        "to": "0x63ba29caf4c40dada8a61d10ab5d2728c806b61f",
        "gas": "0x1166d",
        "value": "0x0",
        "data": "0xa9059cbb000000000000000000000000020e22422e7a60035eeb9f12499c1a348fec0d5b00000000000000000000000000000000000000000000003635c9adc5dea00000",
        "nonce": "0x7",
        "accessList": []
      },
      "additionalContracts": [],
      "isFixedGasLimit": false
    },
    {
      "hash": "0x2a35f970b20604f03f0ead909c157a5ad635a5e8cbdaccd25d90b6efceb7d409",
      "transactionType": "CALL",
      "contractName": "PoolManager",
      "contractAddress": "0xd962b16F4ec712D705106674E944B04614F077be",
      "function": "initialize((address,address,uint24,int24,address),uint160,bytes)",
      "arguments": [
        "(0x63ba29cAF4c40DaDA8a61D10AB5D2728c806b61f, 0xEce6af52f8eDF69dd2C216b9C3f184e5b31750e9, 3000, 60, 0x020e22422E7A60035EEB9F12499C1A348FeC0D5B)",
        "79228162514264337593543950336",
        "0x"
      ],
      "transaction": {
        "type": "0x02",
        "from": "0x4281b208a7c38d1fcd58eeef77e3d7c6cb1de9be",
        "to": "0xd962b16f4ec712d705106674e944b04614f077be",
        "gas": "0x12b68",
        "value": "0x0",
        "data": "0x695c5bf500000000000000000000000063ba29caf4c40dada8a61d10ab5d2728c806b61f000000000000000000000000ece6af52f8edf69dd2c216b9c3f184e5b31750e90000000000000000000000000000000000000000000000000000000000000bb8000000000000000000000000000000000000000000000000000000000000003c000000000000000000000000020e22422e7a60035eeb9f12499c1a348fec0d5b000000000000000000000000000000000000000100000000000000000000000000000000000000000000000000000000000000000000000000000000000000e00000000000000000000000000000000000000000000000000000000000000000",
        "nonce": "0x8",
        "accessList": []
      },
      "additionalContracts": [],
      "isFixedGasLimit": false
    },
    {
      "hash": "0xe815de064c9ea8570ff8a457e3f7cd0b8c3bf3e8238f8b65fd00a92c145019e4",
      "transactionType": "CALL",
      "contractName": null,
      "contractAddress": "0x5bA874E13D2Cf3161F89D1B1d1732D14226dBF16",
      "function": "modifyLiquidity((address,address,uint24,int24,address),(int24,int24,int256),bytes)",
      "arguments": [
        "(0x63ba29cAF4c40DaDA8a61D10AB5D2728c806b61f, 0xEce6af52f8eDF69dd2C216b9C3f184e5b31750e9, 3000, 60, 0x020e22422E7A60035EEB9F12499C1A348FeC0D5B)",
        "(-60, 60, 10000000000000000000000)",
        "0x"
      ],
      "transaction": {
        "type": "0x02",
        "from": "0x4281b208a7c38d1fcd58eeef77e3d7c6cb1de9be",
        "to": "0x5ba874e13d2cf3161f89d1b1d1732d14226dbf16",
        "gas": "0x7d3c4",
        "value": "0x0",
        "data": "0xbec999dd00000000000000000000000063ba29caf4c40dada8a61d10ab5d2728c806b61f000000000000000000000000ece6af52f8edf69dd2c216b9c3f184e5b31750e90000000000000000000000000000000000000000000000000000000000000bb8000000000000000000000000000000000000000000000000000000000000003c000000000000000000000000020e22422e7a60035eeb9f12499c1a348fec0d5bffffffffffffffffffffffffffffffffffffffffffffffffffffffffffffffc4000000000000000000000000000000000000000000000000000000000000003c00000000000000000000000000000000000000000000021e19e0c9bab240000000000000000000000000000000000000000000000000000000000000000001200000000000000000000000000000000000000000000000000000000000000000",
        "nonce": "0x9",
        "accessList": []
      },
      "additionalContracts": [],
      "isFixedGasLimit": false
    },
    {
      "hash": "0x9cd7ffaebf603d5e264c608cd6f5ecc68d6d23f151e600d9cafbedcd4bf307ed",
      "transactionType": "CALL",
      "contractName": null,
      "contractAddress": "0x5bA874E13D2Cf3161F89D1B1d1732D14226dBF16",
      "function": "modifyLiquidity((address,address,uint24,int24,address),(int24,int24,int256),bytes)",
      "arguments": [
        "(0x63ba29cAF4c40DaDA8a61D10AB5D2728c806b61f, 0xEce6af52f8eDF69dd2C216b9C3f184e5b31750e9, 3000, 60, 0x020e22422E7A60035EEB9F12499C1A348FeC0D5B)",
        "(-120, 120, 1000000000000000000000)",
        "0x"
      ],
      "transaction": {
        "type": "0x02",
        "from": "0x4281b208a7c38d1fcd58eeef77e3d7c6cb1de9be",
        "to": "0x5ba874e13d2cf3161f89d1b1d1732d14226dbf16",
        "gas": "0x4dcec",
        "value": "0x0",
        "data": "0xbec999dd00000000000000000000000063ba29caf4c40dada8a61d10ab5d2728c806b61f000000000000000000000000ece6af52f8edf69dd2c216b9c3f184e5b31750e90000000000000000000000000000000000000000000000000000000000000bb8000000000000000000000000000000000000000000000000000000000000003c000000000000000000000000020e22422e7a60035eeb9f12499c1a348fec0d5bffffffffffffffffffffffffffffffffffffffffffffffffffffffffffffff88000000000000000000000000000000000000000000000000000000000000007800000000000000000000000000000000000000000000003635c9adc5dea0000000000000000000000000000000000000000000000000000000000000000001200000000000000000000000000000000000000000000000000000000000000000",
        "nonce": "0xa",
        "accessList": []
      },
      "additionalContracts": [],
      "isFixedGasLimit": false
    }
  ],
  "receipts": [
    {
      "transactionHash": "0x81db31a2067d8bb48a9f37f5cc22f7794c4ea2c815d2be539434c8e81826fadd",
      "transactionIndex": "0x1",
      "blockHash": "0x1daa4caf64d0d890bbcf6da737b0d40392c61abf805220d453807d059eb05c87",
      "blockNumber": "0x718a0d",
      "from": "0x4281b208a7C38d1FCD58EEeF77e3d7c6cB1dE9be",
      "to": "0xEce6af52f8eDF69dd2C216b9C3f184e5b31750e9",
      "cumulativeGasUsed": "0x1609a",
      "gasUsed": "0xb52b",
      "contractAddress": null,
      "logs": [
        {
          "address": "0xEce6af52f8eDF69dd2C216b9C3f184e5b31750e9",
          "topics": [
            "0x8c5be1e5ebec7d5bd14f71427d1e84f3dd0314c0f7b2291e5b200ac8c7c3b925",
            "0x0000000000000000000000004281b208a7c38d1fcd58eeef77e3d7c6cb1de9be",
            "0x0000000000000000000000005ba874e13d2cf3161f89d1b1d1732d14226dbf16"
          ],
          "data": "0x00000000000000000000000000000000000000000000003635c9adc5dea00000",
          "blockHash": "0x1daa4caf64d0d890bbcf6da737b0d40392c61abf805220d453807d059eb05c87",
          "blockNumber": "0x718a0d",
          "transactionHash": "0x81db31a2067d8bb48a9f37f5cc22f7794c4ea2c815d2be539434c8e81826fadd",
          "transactionIndex": "0x1",
          "logIndex": "0x0",
          "removed": false
        }
      ],
      "status": "0x1",
      "logsBloom": "0x00000000000000000000000000000000000000000000000000200000000000000000000000000000000000000000000002000000000040010000000000200000000000000000000000000000000000000000000000000000000000000000000000000000000000000000000000000000000000000000000000000000000000000000000000000000000000000000000000000000000000000000000000000000020004400000000000000000000000000000000000400000000000000000000000000000000000000000000000000000001000000000000000000000000000000010000000000000080000000000000000000000000000000000000000000000",
      "type": "0x2",
      "effectiveGasPrice": "0xb5d1bf15"
    },
    {
      "transactionHash": "0x362e7a6df33a215fdbcec3b1ba327e5f3edeb6156c3905a13b60a53bb8207381",
      "transactionIndex": "0x2",
      "blockHash": "0x1daa4caf64d0d890bbcf6da737b0d40392c61abf805220d453807d059eb05c87",
      "blockNumber": "0x718a0d",
      "from": "0x4281b208a7C38d1FCD58EEeF77e3d7c6cB1dE9be",
      "to": "0x63ba29cAF4c40DaDA8a61D10AB5D2728c806b61f",
      "cumulativeGasUsed": "0x215c5",
      "gasUsed": "0xb52b",
      "contractAddress": null,
      "logs": [
        {
          "address": "0x63ba29cAF4c40DaDA8a61D10AB5D2728c806b61f",
          "topics": [
            "0x8c5be1e5ebec7d5bd14f71427d1e84f3dd0314c0f7b2291e5b200ac8c7c3b925",
            "0x0000000000000000000000004281b208a7c38d1fcd58eeef77e3d7c6cb1de9be",
            "0x0000000000000000000000005ba874e13d2cf3161f89d1b1d1732d14226dbf16"
          ],
          "data": "0x00000000000000000000000000000000000000000000003635c9adc5dea00000",
          "blockHash": "0x1daa4caf64d0d890bbcf6da737b0d40392c61abf805220d453807d059eb05c87",
          "blockNumber": "0x718a0d",
          "transactionHash": "0x362e7a6df33a215fdbcec3b1ba327e5f3edeb6156c3905a13b60a53bb8207381",
          "transactionIndex": "0x2",
          "logIndex": "0x1",
          "removed": false
        }
      ],
      "status": "0x1",
      "logsBloom": "0x00000000000000000000000000000000000000000004000000000000000000000000000000000000000000000000000002000000000040000000000000200000000000000000000000000000000000000000000000000000000000000000000000000000000000000000000000000000000000000000000000000000000000000000000000000000000000000000000000000000000000000000000000000000020004400000000000000000000000000000000000400000000000400000000000000000000000000000000000008000001000000000000000000000000000000010000000000000000000000000000000000000000000000000000000000000",
      "type": "0x2",
      "effectiveGasPrice": "0xb5d1bf15"
    },
    {
      "transactionHash": "0xb3b99c80f5d11b26134a76730f13d46535ffe33ef4888088c5c340a368cb4f7e",
      "transactionIndex": "0x1",
      "blockHash": "0x20d9e54516565ab9990d14bf1d89e853e70ba9af539bde64b8b704a033882b1b",
      "blockNumber": "0x718a0e",
      "from": "0x4281b208a7C38d1FCD58EEeF77e3d7c6cB1dE9be",
      "to": "0xEce6af52f8eDF69dd2C216b9C3f184e5b31750e9",
      "cumulativeGasUsed": "0x1a0b7",
      "gasUsed": "0xc994",
      "contractAddress": null,
      "logs": [
        {
          "address": "0xEce6af52f8eDF69dd2C216b9C3f184e5b31750e9",
          "topics": [
            "0xddf252ad1be2c89b69c2b068fc378daa952ba7f163c4a11628f55a4df523b3ef",
            "0x0000000000000000000000004281b208a7c38d1fcd58eeef77e3d7c6cb1de9be",
            "0x000000000000000000000000020e22422e7a60035eeb9f12499c1a348fec0d5b"
          ],
          "data": "0x00000000000000000000000000000000000000000000003635c9adc5dea00000",
          "blockHash": "0x20d9e54516565ab9990d14bf1d89e853e70ba9af539bde64b8b704a033882b1b",
          "blockNumber": "0x718a0e",
          "transactionHash": "0xb3b99c80f5d11b26134a76730f13d46535ffe33ef4888088c5c340a368cb4f7e",
          "transactionIndex": "0x1",
          "logIndex": "0x0",
          "removed": false
        }
      ],
      "status": "0x1",
      "logsBloom": "0x00000000000000000000000000000000000000000000000000200000000000000000000000000000000000000000000000000000000040010000000000000000000000000000000000000008000000000000000000000000000000000000000000000000000000000000000000000000000000000000000000000010000000000000000000000000000000000000000000000000000000000000000000000000000004000000000000000000000000000000400000400000000000000000004000000002000000000000000000000000000000000000000000000000000000000000000000000008080000000000000000000000000000000000000000000000",
      "type": "0x2",
      "effectiveGasPrice": "0xb5cf02f7"
    },
    {
      "transactionHash": "0x40643afddecfb893d681c0119e449c59c93b01890090cfab0dcb350c93ecf7b6",
      "transactionIndex": "0x2",
      "blockHash": "0x20d9e54516565ab9990d14bf1d89e853e70ba9af539bde64b8b704a033882b1b",
      "blockNumber": "0x718a0e",
      "from": "0x4281b208a7C38d1FCD58EEeF77e3d7c6cB1dE9be",
      "to": "0x63ba29cAF4c40DaDA8a61D10AB5D2728c806b61f",
      "cumulativeGasUsed": "0x26a4b",
      "gasUsed": "0xc994",
      "contractAddress": null,
      "logs": [
        {
          "address": "0x63ba29cAF4c40DaDA8a61D10AB5D2728c806b61f",
          "topics": [
            "0xddf252ad1be2c89b69c2b068fc378daa952ba7f163c4a11628f55a4df523b3ef",
            "0x0000000000000000000000004281b208a7c38d1fcd58eeef77e3d7c6cb1de9be",
            "0x000000000000000000000000020e22422e7a60035eeb9f12499c1a348fec0d5b"
          ],
          "data": "0x00000000000000000000000000000000000000000000003635c9adc5dea00000",
          "blockHash": "0x20d9e54516565ab9990d14bf1d89e853e70ba9af539bde64b8b704a033882b1b",
          "blockNumber": "0x718a0e",
          "transactionHash": "0x40643afddecfb893d681c0119e449c59c93b01890090cfab0dcb350c93ecf7b6",
          "transactionIndex": "0x2",
          "logIndex": "0x1",
          "removed": false
        }
      ],
      "status": "0x1",
      "logsBloom": "0x00000000000000000000000000000000000000000004000000000000000000000000000000000000000000000000000000000000000040000000000000000000000000000000000000000008000000000000000000000000000000000000000000000000000000000000000000000000000000000000000000000010000000000000000000000000000000000000000000000000000000000000000000000000000004000000000000000000000000000000400000400000000000400000004000000002000000000000000000008000000000000000000000000000000000000000000000000008000000000000000000000000000000000000000000000000",
      "type": "0x2",
      "effectiveGasPrice": "0xb5cf02f7"
    },
    {
      "transactionHash": "0x2a35f970b20604f03f0ead909c157a5ad635a5e8cbdaccd25d90b6efceb7d409",
      "transactionIndex": "0x3",
      "blockHash": "0x20d9e54516565ab9990d14bf1d89e853e70ba9af539bde64b8b704a033882b1b",
      "blockNumber": "0x718a0e",
      "from": "0x4281b208a7C38d1FCD58EEeF77e3d7c6cB1dE9be",
      "to": "0xd962b16F4ec712D705106674E944B04614F077be",
      "cumulativeGasUsed": "0x3430f",
      "gasUsed": "0xd8c4",
      "contractAddress": null,
      "logs": [
        {
          "address": "0xd962b16F4ec712D705106674E944B04614F077be",
          "topics": [
            "0x3fd553db44f207b1f41348cfc4d251860814af9eadc470e8e7895e4d120511f4",
            "0xbe77560968f4a24708ad8fac2fa60b45c2e307e33a446dd331ebb5ae56dc5f93",
            "0x00000000000000000000000063ba29caf4c40dada8a61d10ab5d2728c806b61f",
            "0x000000000000000000000000ece6af52f8edf69dd2c216b9c3f184e5b31750e9"
          ],
          "data": "0x0000000000000000000000000000000000000000000000000000000000000bb8000000000000000000000000000000000000000000000000000000000000003c000000000000000000000000020e22422e7a60035eeb9f12499c1a348fec0d5b",
          "blockHash": "0x20d9e54516565ab9990d14bf1d89e853e70ba9af539bde64b8b704a033882b1b",
          "blockNumber": "0x718a0e",
          "transactionHash": "0x2a35f970b20604f03f0ead909c157a5ad635a5e8cbdaccd25d90b6efceb7d409",
          "transactionIndex": "0x3",
          "logIndex": "0x2",
          "removed": false
        }
      ],
      "status": "0x1",
      "logsBloom": "0x00000000000000800002000000004000000000000000000004000001000000000000000000000000000000000000000000000000000000000000000000000000000000000000001000000000000020000000000000000000000000000000000000000000000000000000040000000000000000000000000000000000000000000000100000000000000000000000000000000000000000000000000000000000000000000000000000000000000000000000000000000000000010002000000000000000000000000000000000000000000000000000000000000000000000040000000000000000000000000000000000000022000002000000000000000000",
      "type": "0x2",
      "effectiveGasPrice": "0xb5cf02f7"
    },
    {
      "transactionHash": "0xe815de064c9ea8570ff8a457e3f7cd0b8c3bf3e8238f8b65fd00a92c145019e4",
      "transactionIndex": "0x4",
      "blockHash": "0x20d9e54516565ab9990d14bf1d89e853e70ba9af539bde64b8b704a033882b1b",
      "blockNumber": "0x718a0e",
      "from": "0x4281b208a7C38d1FCD58EEeF77e3d7c6cB1dE9be",
      "to": "0x5bA874E13D2Cf3161F89D1B1d1732D14226dBF16",
      "cumulativeGasUsed": "0x89d28",
      "gasUsed": "0x55a19",
      "contractAddress": null,
      "logs": [
        {
          "address": "0xd962b16F4ec712D705106674E944B04614F077be",
          "topics": [
            "0x541c041c2cce48e614b3de043c9280f06b6164c0a1741649e2de3c3d375f7974",
            "0xbe77560968f4a24708ad8fac2fa60b45c2e307e33a446dd331ebb5ae56dc5f93",
            "0x0000000000000000000000005ba874e13d2cf3161f89d1b1d1732d14226dbf16"
          ],
          "data": "0xffffffffffffffffffffffffffffffffffffffffffffffffffffffffffffffc4000000000000000000000000000000000000000000000000000000000000003c00000000000000000000000000000000000000000000021e19e0c9bab2400000",
          "blockHash": "0x20d9e54516565ab9990d14bf1d89e853e70ba9af539bde64b8b704a033882b1b",
          "blockNumber": "0x718a0e",
          "transactionHash": "0xe815de064c9ea8570ff8a457e3f7cd0b8c3bf3e8238f8b65fd00a92c145019e4",
          "transactionIndex": "0x4",
          "logIndex": "0x3",
          "removed": false
        },
        {
          "address": "0x63ba29cAF4c40DaDA8a61D10AB5D2728c806b61f",
          "topics": [
            "0xddf252ad1be2c89b69c2b068fc378daa952ba7f163c4a11628f55a4df523b3ef",
            "0x0000000000000000000000004281b208a7c38d1fcd58eeef77e3d7c6cb1de9be",
            "0x000000000000000000000000d962b16f4ec712d705106674e944b04614f077be"
          ],
          "data": "0x0000000000000000000000000000000000000000000000019fb0629f90adf061",
          "blockHash": "0x20d9e54516565ab9990d14bf1d89e853e70ba9af539bde64b8b704a033882b1b",
          "blockNumber": "0x718a0e",
          "transactionHash": "0xe815de064c9ea8570ff8a457e3f7cd0b8c3bf3e8238f8b65fd00a92c145019e4",
          "transactionIndex": "0x4",
          "logIndex": "0x4",
          "removed": false
        },
        {
          "address": "0xEce6af52f8eDF69dd2C216b9C3f184e5b31750e9",
          "topics": [
            "0xddf252ad1be2c89b69c2b068fc378daa952ba7f163c4a11628f55a4df523b3ef",
            "0x0000000000000000000000004281b208a7c38d1fcd58eeef77e3d7c6cb1de9be",
            "0x000000000000000000000000d962b16f4ec712d705106674e944b04614f077be"
          ],
          "data": "0x0000000000000000000000000000000000000000000000019fb0629f90adf061",
          "blockHash": "0x20d9e54516565ab9990d14bf1d89e853e70ba9af539bde64b8b704a033882b1b",
          "blockNumber": "0x718a0e",
          "transactionHash": "0xe815de064c9ea8570ff8a457e3f7cd0b8c3bf3e8238f8b65fd00a92c145019e4",
          "transactionIndex": "0x4",
          "logIndex": "0x5",
          "removed": false
        }
      ],
      "status": "0x1",
      "logsBloom": "0x000000001000000000000000000000000000000000040000002000000000000000000000000000000000000000000000020000000000400100000000000000000000000000000010000000080000000000000000000000000000000000000000100000000000000000000400000000000000000000000000000000180000000000001000000000000000000000000000000000000000000000000000000000000000044000000000100000000000000000000000004000000000104020000000000000020000000000000000000080000010000000008000000000000000000000000000000000000c0000000000000000000020000000000000000000000000",
      "type": "0x2",
      "effectiveGasPrice": "0xb5cf02f7"
    },
    {
      "transactionHash": "0x9cd7ffaebf603d5e264c608cd6f5ecc68d6d23f151e600d9cafbedcd4bf307ed",
      "transactionIndex": "0x5",
      "blockHash": "0x20d9e54516565ab9990d14bf1d89e853e70ba9af539bde64b8b704a033882b1b",
      "blockNumber": "0x718a0e",
      "from": "0x4281b208a7C38d1FCD58EEeF77e3d7c6cB1dE9be",
      "to": "0x5bA874E13D2Cf3161F89D1B1d1732D14226dBF16",
      "cumulativeGasUsed": "0xc2276",
      "gasUsed": "0x3854e",
      "contractAddress": null,
      "logs": [
        {
          "address": "0xd962b16F4ec712D705106674E944B04614F077be",
          "topics": [
            "0x541c041c2cce48e614b3de043c9280f06b6164c0a1741649e2de3c3d375f7974",
            "0xbe77560968f4a24708ad8fac2fa60b45c2e307e33a446dd331ebb5ae56dc5f93",
            "0x0000000000000000000000005ba874e13d2cf3161f89d1b1d1732d14226dbf16"
          ],
          "data": "0xffffffffffffffffffffffffffffffffffffffffffffffffffffffffffffff88000000000000000000000000000000000000000000000000000000000000007800000000000000000000000000000000000000000000003635c9adc5dea00000",
          "blockHash": "0x20d9e54516565ab9990d14bf1d89e853e70ba9af539bde64b8b704a033882b1b",
          "blockNumber": "0x718a0e",
          "transactionHash": "0x9cd7ffaebf603d5e264c608cd6f5ecc68d6d23f151e600d9cafbedcd4bf307ed",
          "transactionIndex": "0x5",
          "logIndex": "0x6",
          "removed": false
        },
        {
          "address": "0x63ba29cAF4c40DaDA8a61D10AB5D2728c806b61f",
          "topics": [
            "0xddf252ad1be2c89b69c2b068fc378daa952ba7f163c4a11628f55a4df523b3ef",
            "0x0000000000000000000000004281b208a7c38d1fcd58eeef77e3d7c6cb1de9be",
            "0x000000000000000000000000d962b16f4ec712d705106674e944b04614f077be"
          ],
          "data": "0x000000000000000000000000000000000000000000000000530366ccf2b81587",
          "blockHash": "0x20d9e54516565ab9990d14bf1d89e853e70ba9af539bde64b8b704a033882b1b",
          "blockNumber": "0x718a0e",
          "transactionHash": "0x9cd7ffaebf603d5e264c608cd6f5ecc68d6d23f151e600d9cafbedcd4bf307ed",
          "transactionIndex": "0x5",
          "logIndex": "0x7",
          "removed": false
        },
        {
          "address": "0xEce6af52f8eDF69dd2C216b9C3f184e5b31750e9",
          "topics": [
            "0xddf252ad1be2c89b69c2b068fc378daa952ba7f163c4a11628f55a4df523b3ef",
            "0x0000000000000000000000004281b208a7c38d1fcd58eeef77e3d7c6cb1de9be",
            "0x000000000000000000000000d962b16f4ec712d705106674e944b04614f077be"
          ],
          "data": "0x000000000000000000000000000000000000000000000000530366ccf2b81587",
          "blockHash": "0x20d9e54516565ab9990d14bf1d89e853e70ba9af539bde64b8b704a033882b1b",
          "blockNumber": "0x718a0e",
          "transactionHash": "0x9cd7ffaebf603d5e264c608cd6f5ecc68d6d23f151e600d9cafbedcd4bf307ed",
          "transactionIndex": "0x5",
          "logIndex": "0x8",
          "removed": false
        }
      ],
      "status": "0x1",
      "logsBloom": "0x000000001000000000000000000000000000000000040000002000000000000000000000000000000000000000000000020000000000400100000000000000000000000000000010000000080000000000000000000000000000000000000000100000000000000000000400000000000000000000000000000000180000000000001000000000000000000000000000000000000000000000000000000000000000044000000000100000000000000000000000004000000000104020000000000000020000000000000000000080000010000000008000000000000000000000000000000000000c0000000000000000000020000000000000000000000000",
      "type": "0x2",
      "effectiveGasPrice": "0xb5cf02f7"
    }
  ],
  "libraries": [],
  "pending": [],
  "returns": {},
  "timestamp": 1710650113,
  "chain": 84532,
  "commit": "01b3a27"
}