{
  "transactions": [
    {
      "hash": "0xaf7fda77d39e50ac73c98cd7e8639c0c11b788ccfb81a9d4720dc7a2ac139961",
      "transactionType": "CALL",
      "contractName": "TetherUSD",
      "contractAddress": "0xEce6af52f8eDF69dd2C216b9C3f184e5b31750e9",
      "function": "approve(address,uint256)",
      "arguments": [
        "0x4281b208a7C38d1FCD58EEeF77e3d7c6cB1dE9be",
        "1000000000000000000000"
      ],
      "transaction": {
        "type": "0x02",
        "from": "0x4281b208a7c38d1fcd58eeef77e3d7c6cb1de9be",
        "to": "0xece6af52f8edf69dd2c216b9c3f184e5b31750e9",
        "gas": "0x108f4",
        "value": "0x0",
        "data": "0x095ea7b30000000000000000000000004281b208a7c38d1fcd58eeef77e3d7c6cb1de9be00000000000000000000000000000000000000000000003635c9adc5dea00000",
        "nonce": "0x2",
        "accessList": []
      },
      "additionalContracts": [],
      "isFixedGasLimit": false
    }
  ],
  "receipts": [
    {
      "transactionHash": "0xaf7fda77d39e50ac73c98cd7e8639c0c11b788ccfb81a9d4720dc7a2ac139961",
      "transactionIndex": "0x1",
      "blockHash": "0x0a862e73175e39bdc89a85fb1b89ac4804bf228a422ecfc1264c57c4b4c9f01a",
      "blockNumber": "0x7185f9",
      "from": "0x4281b208a7C38d1FCD58EEeF77e3d7c6cB1dE9be",
      "to": "0xEce6af52f8eDF69dd2C216b9C3f184e5b31750e9",
      "cumulativeGasUsed": "0x1608e",
      "gasUsed": "0xb52b",
      "contractAddress": null,
      "logs": [
        {
          "address": "0xEce6af52f8eDF69dd2C216b9C3f184e5b31750e9",
          "topics": [
            "0x8c5be1e5ebec7d5bd14f71427d1e84f3dd0314c0f7b2291e5b200ac8c7c3b925",
            "0x0000000000000000000000004281b208a7c38d1fcd58eeef77e3d7c6cb1de9be",
            "0x0000000000000000000000004281b208a7c38d1fcd58eeef77e3d7c6cb1de9be"
          ],
          "data": "0x00000000000000000000000000000000000000000000003635c9adc5dea00000",
          "blockHash": "0x0a862e73175e39bdc89a85fb1b89ac4804bf228a422ecfc1264c57c4b4c9f01a",
          "blockNumber": "0x7185f9",
          "transactionHash": "0xaf7fda77d39e50ac73c98cd7e8639c0c11b788ccfb81a9d4720dc7a2ac139961",
          "transactionIndex": "0x1",
          "logIndex": "0x0",
          "removed": false
        }
      ],
      "status": "0x1",
      "logsBloom": "0x00000000000000000000000000000000000000000000000000200000000000000000000000000000000000000000000000000000000040010000000000200000000000000000000000000000000000000000000000000000000000000000000000000000000000000000000000000000000000000000000000000000000000000000000000000000000000000000000000000000000000000000000000000000020004000000000000000000000000000000000000400000000000000000000000000000000000000000000000000000000000000000000000000000000000000010000000000000080000000000000000000000000000000000000000000000",
      "type": "0x2",
      "effectiveGasPrice": "0xb5ccf2f5"
    }
  ],
  "libraries": [],
  "pending": [],
  "returns": {},
  "timestamp": 1710648023,
  "chain": 84532,
  "commit": "01b3a27"
}